:020000040000FA
:10000000B0100020750100007D0100007F0100009C
:1000100081010000830100008501000055000000FF
:100020000000000000000000000000008701000048
:1000300089010000000000008B0100008D0100001C
:100040008F01000095020000BB0200008F0100003C
:100050008F0100008F0100008F0100008F01000060
:100060008F0100008F0100008F0100008F01000050
:100070008F0100008F0100008F0100008F01000040
:100080008F0100008F0100008F0100008F01000030
:100090008F0100008F0100008F0100008F01000020
:1000A0008F0100008F0100008F0100008F01000010
:1000B0008F0100008F0100008F0100008F01000000
:1000C00000F002F800F03AF80AA090E8000C824430
:1000D0008344AAF10107DA4501D100F02FF8AFF20D
:1000E000090EBAE80F0013F0010F18BFFB1A43F016
:1000F00001031847000B0000200B0000103A24BF3A
:1001000078C878C1FAD8520724BF30C830C144BF7C
:1001100004680C60704700000023002400250026BE
:10012000103A28BF78C1FBD8520728BF30C148BF5A
:100130000B6070471FB51FBD10B510BD00F098FCD7
:100140001146FFF7F7FF00F04FF800F0B6FC03B4DC
:10015000FFF7F2FF03BC00F0BDFC000003480449B8
:1001600008607047014802490860704740787D0187
:10017000000000200948804709480047FEE7FEE7E5
:10018000FEE7FEE7FEE7FEE7FEE7FEE7FEE7FEE747
:1001900004480549054A064B704700006501000008
:1001A000C1000000B0000020B0100020B00C002002
:1001B000B00C002070B504460D460948006820B117
:1001C00029462046064A1268904700BF0548006845
:1001D0000028FBD170BD02490860704770470000DD
:1001E0000C0000200800002010B592B02022144915
:1001F00009A800F0E1FB134C202101A800F00EFC3F
:100200000020119007E009A8119950F8210001C4BD
:100210001198401C119011980828F4D3094C002023
:10022000119007E001CC01A9119A41F82200119820
:10023000401C119011980828F4D3002012B010BD72
:10024000E40A00000000A04410B50021574800F067
:100250008CFB04460CB1012010BD6FF00F02012190
:10026000524800F0C7F805220121504800F07FF9FC
:100270000020F1E710B502214D4800F02CFA0221D0
:100280004A4800F028FA4A4800F0B8F9474800F018
:10029000B5F910BD08B50221444800F029F90090D5
:1002A00001214248009A00F062F903213F4800F022
:1002B0008EFA012000F070F808BD7CB502213C48A0
:1002C00000F016F9002836D00221394800F010F964
:1002D00001900121364800F00BF90090019800F0E0
:1002E000010010B10724012516E0019800F002007A
:1002F00010B1382408250FE0019800F0040018B16F
:100300004FF4E074402507E0019800F0080018B1B0
:100310004FF460644FF40075009800EA0406701909
:1003200000EA04060098A0433043009001212048D1
:10033000009A00F01CF903211D4800F048FA022041
:1003400000F02AF87CBD10B5044622460121194868
:1003500000F00DF910BD08B50221144800F0C8F8EE
:100360000090009A521C0121104800F000F908BDCD
:1003700010B5072201210D4800F0F9F800220121F3
:100380000A4800F0F4F810BD10B5044622460121D9
:10039000064800F0ECF810BD00F01F02012191406A
:1003A000054A430942F8231070470000200000204E
:1003B000300000204000002080E200E070B50446DC
:1003C0000D4616461CB100208A49086008E07921D4
:1003D0008948FFF7EFFE012086490860002070BDC4
:1003E0002660A868A060E868E0604FF011306060A7
:1003F0000020F4E770B504460D4616461CB10020F7
:100400007C49086007E09E217B48FFF7D3FE01206E
:100410007849086070BD6068B0F1113F03D10020D9
:100420007449086007E09F217348FFF7C3FE01206D
:1004300070490860EEE7012D04D0022D06D1E06876
:10044000012803D100206B49086007E0A0216A4819
:10045000FFF7B0FE012067490860DBE7691E04234F
:1004600003EBC10122685018314600F0BFF800BF0D
:10047000D0E770B504460D461CB100205D49086008
:1004800008E0BC215C48FFF795FE0120594908604F
:10049000002070BD6068B0F1113F03D100205549C4
:1004A000086008E0BD215448FFF784FE012051494F
:1004B00008600020EDE7012D04D0022D06D1E06890
:1004C000012803D100204B49086008E0BE214A48BA
:1004D000FFF770FE0120474908600020D9E7691E38
:1004E000042303EBC1012268501801680846D0E7D5
:1004F00070B504460D461CB100203E49086008E076
:10050000D6213D48FFF756FE01203A4908600020F9
:1005100070BD6068B0F1113F03D10020354908601B
:1005200008E0D7213448FFF745FE01203149086033
:100530000020EDE7012D04D0022D06D1E06801284E
:1005400003D100202B49086008E0D8212A48FFF792
:1005500031FE0120274908600020D9E7691E0023E9
:1005600003EBC1012268501801680846D0E770B556
:1005700004460D4616461CB100201E49086007E0DF
:10058000F2211D48FFF716FE01201A49086070BDD0
:100590006068B0F1113F03D100201649086007E000
:1005A000F3211548FFF706FE012012490860EEE727
:1005B000012D04D0022D06D1E068012803D10020CE
:1005C0000C49086007E0F4210B48FFF7F3FD012018
:1005D00008490860DBE7691E002303EBC1012268BC
:1005E0005018314600F002F800BFD0E70246116013
:1005F0007047000004000020040B000010B5044602
:100600001CB10020CD49086007E05B21CC48FFF712
:10061000D1FD0120C949086010BD6068B0F1113FEB
:1006200003D10020C549086007E05C21C448FFF7FA
:10063000C1FD0120C1490860EEE7A068012803D18F
:100640000020BE49086007E05D21BD48FFF7B2FD0C
:100650000120BA490860DFE7216801F58E704FF08C
:10066000004100F067F900BFD6E710B504461CB1A1
:100670000020B249086007E07621B148FFF79AFDF3
:100680000120AE49086010BD6068B0F1113F03D190
:100690000020AA49086007E07721A948FFF78AFDF2
:1006A0000120A6490860EEE7A068012803D10020D8
:1006B000A249086007E07821A148FFF77BFD0120EF
:1006C0009E490860DFE7216801F58E70002100F087
:1006D00031F900BFD7E770B504460D461CB10020C4
:1006E0009649086007E094219548FFF763FD0120D3
:1006F0009249086070BD6068B0F1113F03D10020DD
:100700008E49086007E095218D48FFF753FD0120D1
:100710008A490860EEE7A068012803D100208749D4
:10072000086007E096218648FFF744FD01208349D1
:100730000860DFE7216801F5947000F0F8F80646DC
:1007400046EA0501226802F5947000F0F3F800BF54
:10075000D0E770B504460D461CB10020774908600B
:1007600007E0B8217648FFF725FD012073490860AE
:1007700070BD6068B0F1113F03D100206F4908607F
:1007800007E0B9216E48FFF715FD01206B490860AD
:10079000EEE7A068012803D100206849086007E05F
:1007A000BA216748FFF706FD012064490860DFE7CA
:1007B000216801F5947000F0BAF8064626EA0501B2
:1007C000226802F5947000F0B5F800BFD0E770B56C
:1007D00004460D461CB100205849086007E0DB21A3
:1007E0005748FFF7E7FC01205449086070BD606876
:1007F000B0F1113F03D100205049086007E0DC212F
:100800004F48FFF7D7FC01204C490860EEE7A0688D
:10081000012803D100204949086007E0DD2148484C
:10082000FFF7C8FC012045490860DFE7216801F5B2
:10083000907000F07CF8064606EA0501226802F591
:10084000907000F077F800BFD0E710B504461CB1F7
:1008500000203A49086008E0FE213948FFF7AAFC69
:10086000012036490860002010BD6068B0F1113FDA
:1008700003D100203149086008E0FF213048FFF72C
:1008800099FC01202D4908600020EDE7A0680128AF
:1008900003D100202949086009E04FF480712848FD
:1008A000FFF788FC0120254908600020DCE721686B
:1008B00001F5947000F03BF8D6E710B504461CB182
:1008C00000201E49086009E040F21B111C48FFF798
:1008D00071FC012019490860002010BD6068B0F16A
:1008E000113F03D100201549086009E04FF48E71D3
:1008F0001348FFF75FFC0120104908600020ECE777
:10090000A068012803D100200C49086009E040F2EA
:100910001D110B48FFF74EFC01200849086000201C
:10092000DBE7216801F5907000F001F8D5E701469A
:1009300008687047024611607047000004000020FC
:10094000500B00000246002000210AE0174B03EB89
:1009500001131B88934203D1144B03EB011002E0F7
:10096000491C0129F2DB00BF704770B505460E46F1
:100970001DB100200E49086008E08B210D48FFF7EB
:1009800019FC01200A490860002070BD3046FFF7BD
:10099000D9FF04461CB9002068600220F5E7214613
:1009A00028466268FFF70AFDEFE70000100000200C
:1009B00004000020A00B000010B5203AC0F00B800E
:1009C000B1E81850203AA0E81850B1E81850A0E853
:1009D0001850BFF4F5AF5FEA027C24BFB1E81850AD
:1009E000A0E8185044BF18C918C0BDE810405FEA1D
:1009F000827C24BF51F8043B40F8043B08BF704799
:100A0000D20728BF31F8023B48BF11F8012B28BF9D
:100A100020F8023B48BF00F8012B70474FF000025E
:100A200000B5134694469646203922BFA0E80C50E4
:100A3000A0E80C50B1F12001BFF4F7AF090728BFBF
:100A4000A0E80C5048BF0CC05DF804EB890028BF3B
:100A500040F8042B08BF704748BF20F8022B11F064
:100A6000804F18BF00F8012B7047704770477047E0
:100A7000754600F02BF8AE4605006946534620F057
:100A80000700854618B020B5FFF782FBBDE820407F
:100A90004FF000064FF000074FF000084FF0000B3A
:100AA00021F00701AC46ACE8C009ACE8C009ACE8ED
:100AB000C009ACE8C0098D46704710B50446AFF3D5
:100AC00000802046BDE81040FFF741BB004870475A
:100AD0005000002001491820ABBEFEE726000200AE
:100AE0007047000067452301EFCDAB89EFBEADDE57
:100AF000EDDAEBFEA53CF0A521436587A90BDCFEF2
:100B0000080402012E2E5C73646B5F776F726B7347
:100B1000706163655C7374616E64616C6F6E655F58
:100B20006273705F305C436F727465785F4D335FE2
:100B3000305C6C69627372635C6770696F5F763496
:100B40005F345C7372635C786770696F2E6300005A
:100B50002E2E5C73646B5F776F726B73706163656D
:100B60005C7374616E64616C6F6E655F6273705FFD
:100B7000305C436F727465785F4D335F305C6C69D5
:100B8000627372635C6770696F5F76345F345C7345
:100B900072635C786770696F5F696E74722E630050
:100BA0002E2E5C73646B5F776F726B73706163651D
:100BB0005C7374616E64616C6F6E655F6273705FAD
:100BC000305C436F727465785F4D335F305C6C6985
:100BD000627372635C6770696F5F76345F345C73F5
:100BE00072635C786770696F5F73696E69742E6396
:100BF00000000000140C0000000000202000000095
:100C0000FC000000340C00002000002090100000C8
:100C10001801000040787D01000000000100000084
:100C20000000000000000000000000400100000083
:040C300001000000BF
:040000050000017581
:00000001FF
