:020000040000FA
:1000000090100020750100007D0100007F010000BC
:1000100081010000830100008501000055000000FF
:100020000000000000000000000000008701000048
:1000300089010000000000008B0100008D0100001C
:100040008F0100008F0100008F0100008F01000070
:100050008F0100008F0100008F0100008F01000060
:100060008F0100008F0100008F0100008F01000050
:100070008F0100008F0100008F0100008F01000040
:100080008F0100008F0100008F0100008F01000030
:100090008F0100008F0100008F0100008F01000020
:1000A0008F0100008F0100008F0100008F01000010
:1000B0008F0100008F0100008F0100008F01000000
:1000C00000F002F800F03AF80AA090E8000C824430
:1000D0008344AAF10107DA4501D100F02FF8AFF20D
:1000E000090EBAE80F0013F0010F18BFFB1A43F016
:1000F000010318471805000038050000103A24BF16
:1001000078C878C1FAD8520724BF30C830C144BF7C
:1001100004680C60704700000023002400250026BE
:10012000103A28BF78C1FBD8520728BF30C148BF5A
:100130000B6070471FB51FBD10B510BD00F0DBF997
:100140001146FFF7F7FF00F04FF800F0F9F903B49C
:10015000FFF7F2FF03BC00F001FA00000348044976
:1001600008607047014802490860704740787D0187
:10017000000000200948804709480047FEE7FEE7E5
:10018000FEE7FEE7FEE7FEE7FEE7FEE7FEE7FEE747
:1001900004480549054A064B704700006501000008
:1001A000C10000009000002090100020900C002062
:1001B000900C002070B504460D460948006820B137
:1001C00029462046064A1268904700BF0548006845
:1001D0000028FBD170BD02490860704770470000DD
:1001E0000C0000200800002000F004F801E000F0FE
:1001F00017F8FCE710B500210F4800F052F904464B
:100200000CB1012010BD6FF00F0201210A4800F06F
:1002100031F801221146084800F0E9F80020F1E722
:1002200010B50F220121044800F0E1F8002201215D
:10023000014800F0DCF810BD2000002070B5044635
:100240000D4616461CB100208A49086008E0792155
:100250008948FFF7AFFF012086490860002070BD84
:100260002660A868A060E868E0604FF01130606028
:100270000020F4E770B504460D4616461CB1002078
:100280007C49086007E09E217B48FFF793FF01202F
:100290007849086070BD6068B0F1113F03D100205B
:1002A0007449086007E09F217348FFF783FF01202E
:1002B00070490860EEE7012D04D0022D06D1E068F8
:1002C000012803D100206B49086007E0A0216A489B
:1002D000FFF770FF012067490860DBE7691E042310
:1002E00003EBC10122685018314600F0BFF800BF8F
:1002F000D0E770B504460D461CB100205D4908608A
:1003000008E0BC215C48FFF755FF0120594908600F
:10031000002070BD6068B0F1113F03D10020554945
:10032000086008E0BD215448FFF744FF012051490F
:1003300008600020EDE7012D04D0022D06D1E06811
:10034000012803D100204B49086008E0BE214A483B
:10035000FFF730FF0120474908600020D9E7691EF8
:10036000042303EBC1012268501801680846D0E756
:1003700070B504460D461CB100203E49086008E0F7
:10038000D6213D48FFF716FF01203A4908600020BA
:1003900070BD6068B0F1113F03D10020354908609D
:1003A00008E0D7213448FFF705FF012031490860F4
:1003B0000020EDE7012D04D0022D06D1E0680128D0
:1003C00003D100202B49086008E0D8212A48FFF714
:1003D000F1FE0120274908600020D9E7691E0023AB
:1003E00003EBC1012268501801680846D0E770B5D8
:1003F00004460D4616461CB100201E49086007E061
:10040000F2211D48FFF7D6FE01201A49086070BD91
:100410006068B0F1113F03D100201649086007E081
:10042000F3211548FFF7C6FE012012490860EEE7E8
:10043000012D04D0022D06D1E068012803D100204F
:100440000C49086007E0F4210B48FFF7B3FE0120D8
:1004500008490860DBE7691E002303EBC10122683D
:100460005018314600F002F800BFD0E70246116094
:1004700070470000040000206C05000002460020C8
:1004800000210AE0174B03EB01131B88934203D1B1
:10049000144B03EB011002E0491C0129F2DB00BF01
:1004A000704770B505460E461DB100200E49086024
:1004B00008E08B210D48FFF77DFE01200A49086006
:1004C000002070BD3046FFF7D9FF04461CB900205C
:1004D00068600220F5E7214628466268FFF7AEFE15
:1004E000EFE700001000002004000020B805000025
:1004F000704770477047754600F02CF8AE4605000F
:100500006946534620F00700854618B020B5FFF72E
:100510003FFEBDE820404FF000064FF000074FF0CF
:1005200000084FF0000B21F00701AC46ACE8C00911
:10053000ACE8C009ACE8C009ACE8C0098D4670471A
:1005400010B50446AFF300802046BDE81040FFF729
:10055000FEBD00000048704730000020014918200F
:10056000ABBEFEE726000200704700002E2E5C7333
:10057000646B5F776F726B73706163655C737461DA
:100580006E64616C6F6E655F6273705F305C436F49
:10059000727465785F4D335F305C6C69627372634F
:1005A0005C6770696F5F76345F345C7372635C782C
:1005B0006770696F2E6300002E2E5C73646B5F772B
:1005C0006F726B73706163655C7374616E64616C90
:1005D0006F6E655F6273705F305C436F72746578D5
:1005E0005F4D335F305C6C69627372635C67706926
:1005F0006F5F76345F345C7372635C786770696FC9
:100600005F73696E69742E63000000002C060000A1
:100610000000002020000000FC0000004C0600004C
:1006200020000020701000001801000040787D01BB
:1006300000000000010000000000000000000000B9
:0C0640000000004000000000000000006E
:040000050000017581
:00000001FF
